{
  "contractName": "Ownable",
  "abi": [
    {
      "constant": true,
      "inputs": [],
      "name": "owner",
      "outputs": [
        {
          "name": "",
          "type": "address"
        }
      ],
      "payable": false,
      "stateMutability": "view",
      "type": "function"
    },
    {
      "inputs": [],
      "payable": false,
      "stateMutability": "nonpayable",
      "type": "constructor"
    }
  ],
  "bytecode": "0x608060405234801561001057600080fd5b50336000806101000a81548173ffffffffffffffffffffffffffffffffffffffff021916908373ffffffffffffffffffffffffffffffffffffffff16021790555060e98061005f6000396000f3fe608060405260043610603f576000357c0100000000000000000000000000000000000000000000000000000000900463ffffffff1680638da5cb5b146044575b600080fd5b348015604f57600080fd5b5060566098565b604051808273ffffffffffffffffffffffffffffffffffffffff1673ffffffffffffffffffffffffffffffffffffffff16815260200191505060405180910390f35b6000809054906101000a900473ffffffffffffffffffffffffffffffffffffffff168156fea165627a7a7230582025abf3d964d0d65aeef16339e4ea67df4a714c544a67974b9fa98718da2056d70029",
  "source": "pragma solidity >=0.4.25 <0.6.0;\n\ncontract Ownable {\n    address public owner;\n\n    constructor() public {\n        owner = msg.sender;\n    }\n\n    modifier onlyOwner() {\n        require(msg.sender == owner);\n        _;\n    }\n}\n\ncontract Pausable is Ownable {\n    event Pause();\n    event Unpause();\n\n    bool public paused = false;\n\n    modifier whenNotPaused() {\n        require(!paused);\n        _;\n    }\n\n    modifier whenPaused() {\n        require(paused);\n        _;\n    }\n\n    function pause() onlyOwner whenNotPaused public {\n        paused = true;\n        emit Pause();\n    }\n\n    function unpause() onlyOwner whenPaused public {\n        paused = false;\n        emit Unpause();\n    }\n}\n\nlibrary SafeMath {\n    function mul(uint256 a, uint256 b) internal pure returns (uint256) {\n        if (a == 0) {\n            return 0;\n        }\n        uint256 c = a * b;\n        assert(c / a == b);\n        return c;\n    }\n\n    function div(uint256 a, uint256 b) internal pure returns (uint256) {\n        assert(b > 0); // Solidity automatically throws when dividing by 0\n        uint256 c = a / b;\n        // assert(a == b * c + a % b); // There is no case in which this doesn't hold\n        return c;\n    }\n\n    function sub(uint256 a, uint256 b) internal pure returns (uint256) {\n        assert(b <= a);\n        return a - b;\n    }\n\n    function add(uint256 a, uint256 b) internal pure returns (uint256) {\n        uint256 c = a + b;\n        assert(c >= a);\n        return c;\n    }\n}\n\ncontract ERC20 {\n    uint256 public totalSupply;\n    function balanceOf(address who) public view returns (uint256);\n    function transfer(address to, uint256 value) public returns (bool);\n    event Transfer(address indexed from, address indexed to, uint256 value);\n    function allowance(address owner, address spender) public view returns (uint256);\n    function transferFrom(address from, address to, uint256 value) public returns (bool);\n    function approve(address spender, uint256 value) public returns (bool);\n    event Approval(address indexed owner, address indexed spender, uint256 value);\n}\n\ncontract SWAP is Pausable, ERC20 {\n    using SafeMath for uint256;\n    event BatchTransfer(address indexed owner, bool value);\n    event Locked(address indexed owner, uint256 value);\n    event Unlocked(address indexed owner, uint256 value);\n    event Mint(address indexed to, uint256 value);\n    event Burn(address indexed from, uint256 value);\n\n    string public name;\n    string public symbol;\n    uint8 public decimals;\n\n    mapping (address => uint256) private balances;\n    mapping (address => mapping (address => uint256)) internal allowed;\n    mapping (address => uint256) private lockedBalances;\n\n    constructor() public {\n        name = \"SWAP\";\n        symbol = \"SWAP\";\n        decimals = 18;\n        totalSupply = 3100000000 * 10 ** uint256(decimals);\n        balances[msg.sender] = totalSupply;\n    }\n\n    function transfer(address _to, uint256 _value) whenNotPaused public returns (bool) {\n        require(_to != address(0));\n        if ((balances[msg.sender] >= lockedBalances[msg.sender]) && \n            (_value <= (balances[msg.sender] - lockedBalances[msg.sender])))\n        {\n            balances[msg.sender] = balances[msg.sender].sub(_value);\n            balances[_to] = balances[_to].add(_value);\n            emit Transfer(msg.sender, _to, _value);\n            return true;\n        }\n        else\n        {\n            return false;\n        }\n    }\n\n    function balanceOf(address _owner) public view returns (uint256 balance) {\n        return balances[_owner];\n    }\n\n    function transferFrom(address _from, address _to, uint256 _value) public whenNotPaused returns (bool) {\n        require(_to != address(0));\n        require((balances[msg.sender] >= lockedBalances[msg.sender]) && (_value <= (balances[_from] - lockedBalances[_from])));\n        require(_value <= allowed[_from][msg.sender]);\n\n        balances[_from] = balances[_from].sub(_value);\n        balances[_to] = balances[_to].add(_value);\n        allowed[_from][msg.sender] = allowed[_from][msg.sender].sub(_value);\n        emit Transfer(_from, _to, _value);\n        return true;\n    }\n\n    function approve(address _spender, uint256 _value) public whenNotPaused returns (bool) {\n        allowed[msg.sender][_spender] = _value;\n        emit Approval(msg.sender, _spender, _value);\n        return true;\n    }\n\n    function allowance(address _owner, address _spender) public view returns (uint256) {\n        return allowed[_owner][_spender];\n    }\n\n    function lockedBalanceOf(address who) public view returns (uint256) {\n        return lockedBalances[who];\n    }\n\n    function lock(address _owner, uint256 _value) public onlyOwner {\n        uint256 available = balances[_owner].sub(lockedBalances[_owner]);\n        require (available >= _value);\n        lockedBalances[_owner] = lockedBalances[_owner].add(_value);\n        emit Locked(_owner, _value);\n    }\n\n    function unlock(address _owner, uint256 _value) public onlyOwner {\n        lockedBalances[_owner] = lockedBalances[_owner].sub(_value);\n        emit Unlocked(_owner, _value);\n    }\n\n    function mint(address to, uint256 _value) onlyOwner public returns (bool success) {\n\t\trequire (_value > 0); \n        balances[to] = SafeMath.add(balances[to], _value);                      \n        totalSupply = SafeMath.add(totalSupply,_value);                                // Updates totalSupply\n        emit Mint(to, _value);\n        return true;\n    }\n\n    function burn(address from, uint256 _value) onlyOwner public returns (bool success) {\n        require (balances[from] >= _value);            // Check if the sender has enough\n\t\trequire (_value > 0); \n        balances[from] = SafeMath.sub(balances[from], _value);                         // Subtract from the sender\n        totalSupply = SafeMath.sub(totalSupply,_value);                                // Updates totalSupply\n        emit Burn(from, _value);\n        return true;\n    }\n}",
  "sourcePath": "/Users/shiyimin/workspace/区块链/MOBC/src/swap/contracts/SwapCoin.sol",
  "compiler": {
    "name": "solc",
    "version": "0.5.0+commit.1d4f565a.Emscripten.clang"
  },
  "schemaVersion": "3.0.8",
  "updatedAt": "2019-04-28T14:17:28.833Z",
  "devdoc": {
    "methods": {}
  },
  "userdoc": {
    "methods": {}
  }
}